:020000040800F2
:10000000180500209D010008BB0E0008FD0D00082A
:10001000B90E0008A9020008F5130008000000004E
:10002000000000000000000000000000DF0E0008DB
:10003000AB02000800000000DD0E0008E10E000821
:10004000B7010008B7010008B7010008B7010008B0
:10005000B7010008B7010008B7010008B7010008A0
:10006000B7010008B7010008B7010008B701000890
:10007000B7010008B7010008B7010008B701000880
:10008000B7010008B7010008B7010008B701000870
:10009000B7010008B7010008B7010008B701000860
:1000A000B7010008B7010008B7010008B701000850
:1000B000B7010008B7010008B7010008B701000840
:1000C000B7010008B7010008B7010008B701000830
:1000D000B7010008B7010008E9130008B7010008DC
:1000E000B7010008B7010008B7010008B701000810
:1000F000B7010008B7010008B7010008B701000800
:10010000B7010008B7010008B7010008B7010008EF
:10011000B7010008B7010008B7010008B7010008DF
:10012000B7010008B7010008B7010008B7010008CF
:10013000B7010008B7010008B7010008B7010008BF
:10014000B7010008B7010008B7010008B7010008AF
:10015000B7010008B7010008B7010008B70100089F
:10016000B7010008B7010008B7010008B70100088F
:10017000B7010008B7010008B7010008000000003F
:10018000B7010008B7010008DFF80CD000F07AF8DA
:10019000004800478F1600081805002006488047D1
:1001A00006480047FEE7FEE7FEE7FEE7FEE7FEE75C
:1001B000FEE7FEE7FEE7FEE7690F00088901000899
:1001C0002DE9F05F0546002092469B46884606468C
:1001D000814640241BE0284641464746224600F01F
:1001E00041F853465A46C01A914110D31146184659
:1001F000224600F028F82D1A67EB01084F462246E8
:100200000120002100F01FF817EB00094E41201ECD
:10021000A4F10104DFDC484631462A464346BDE8E6
:10022000F09FD2B201E000F8012B491EFBD27047CB
:100230000022F6E710B513460A4604461946FFF7B2
:10024000F0FF204610BD202A04DB203A00FA02F11C
:10025000002070479140C2F1200320FA03F31943B4
:1002600090407047202A04DB203A21FA02F0002156
:10027000704721FA02F3D040C2F1200291400843B6
:1002800019467047064C074D06E0E06840F0010350
:1002900094E8070098471034AC42F6D3FFF778FF94
:1002A000BC160008DC160008FEE77047704790F89F
:1002B0003510022903D080214165012070470521B6
:1002C00080F835100068016821F00101016000200C
:1002D000704700002DE9F84FDFF87CB100224FF0A5
:1002E00001084FF0030A4FF00F090BF1040E00BF95
:1002F0000B6808FA02F42340A3426ED14D68022D28
:1003000001D0122D0ED1D50800EB850CDCF8205061
:100310005607F70E09FA07F6B5430E69BE402E439D
:10032000CCF82060066855000F790AFA05FC07F042
:10033000030726EA0C06AF40374307604E68012EDC
:1003400005D0022E03D0112E01D0122E0ED18668B8
:10035000CF6826EA0C06AF40374387604668A6435D
:100360000C79C4F30014944034434460C6688C682C
:1003700026EA0C06AC403443C4604C68E40065D502
:10038000364C256845F480452560246822F0030535
:1003900004F480440094324C2E19D6F8084895078E
:1003A0002F0F09FA07F5AC432E4DA84201D10025C5
:1003B00024E02D4DA84201D101251FE02B4DA8427C
:1003C00001D102251AE02A4DA84201D1032515E0EA
:1003D000284DA84202D1042510E037E0264DA8425E
:1003E00001D105250AE0254DA84201D1062505E0E9
:1003F000234DA84201D1072500E00825BD40254333
:10040000C6F80858DBF800405D464E689C43F6038A
:1004100000D51C432C60DEF8004075464E689C43B6
:10042000B60300D51C432C600B4D08352C684E6874
:100430009C43F60200D51C432C60074D0C352C68FC
:100440004E689C43B60200D51C432C60521C102AF7
:10045000FFF44EAFBDE8F88F003C01404438024045
:100460000030014000000240000402400008024049
:10047000000C02400010024000140240001802402C
:10048000001C024001488068704700000000002006
:1004900002488168027811448160704700000020A2
:1004A0000B4810B5016841F400710160016841F426
:1004B00080610160016841F480710160032000F0F7
:1004C0006DF8002000F006F800F024F8002010BDC0
:1004D000003C024070B50D4D04464FF47A71287807
:1004E000B1FBF0F00A490968B1FBF0F000F0DEFA68
:1004F00048B9102C07D200222146501E00F02EF8D9
:1005000000206C6070BD012070BD00000000002064
:100510000C0000200A4808B5016841F480410160E0
:10052000006800F4804000900548001F016841F019
:1005300080510160006800F08050009008BD00000C
:100540004438024000F01F02012191404009800020
:1005500000F1E020C0F8001170470000F0B40E4B2D
:100560001B680C46C3F30223C3F10705042D00D911
:100570000425191D072901D2002300E0DB1E0126F6
:1005800006FA05F1491E214099409E40761E16400C
:100590003143F0BC00F092BC0CED00E0064900F0E5
:1005A000070208684FF6FF03184040EA0220034A9A
:1005B00010430860704700000CED00E00000FA05F1
:1005C0002DE9F0470E46050065D0DFF81481D8F814
:1005D0000000F7B200F00F00B04207D288F80070B8
:1005E000D8F8000000F00F00B04254D128683D4C0C
:1005F000810712D5400703D5206840F4E050206001
:100600002878000703D5206840F460402060206807
:10061000A96820F0F000084320602878C0072DD09A
:10062000304968680839012812D0022813D00328FD
:1006300011D00968890700292DDA216821F003010A
:1006400001432160FFF71EFF814641F2883A0EE028
:1006500009688903EFE709688901ECE7FFF712FFF2
:10066000A0EB0901514502D90320BDE8F0872068BD
:10067000696800F00C00B0EB810FEFD1D8F80010E2
:10068000404601F00F01B14207D90770006800F041
:100690000F00B04201D00120E7E72878400705D5D8
:1006A0002068E96820F4E0500843206028780007BB
:1006B00006D52068296920F4604040EAC100206026
:1006C00000F036F82168084AC1F30311515CC840B4
:1006D000064908600020FFF7FDFE0020C5E7000086
:1006E000003C024008380240A41600080C0000201C
:1006F0000448054900680968044AC1F38221515C35
:10070000C84070470C00002008380240B4160008AA
:100710000448054900680968044AC1F34231515C44
:10072000C84070470C00002008380240B41600088A
:10073000154810B5006810F00C02144813D0411091
:10074000042A0FD0082A0ED10F4C241F22682368D8
:1007500002F03F025B0207D52068C0F38810A0FBBF
:10076000010106E0084610BD2168C1F38811A1FB14
:1007700000010023FFF724FD2168C1F30141491C5A
:100780004900B0FBF1F010BD083802400024F4002D
:100790002DE9F84F050076D02878DFF8F8B2BE4C86
:1007A000C00749D0DBF800105846C1F38101012988
:1007B00008D00068C0F3810002280AD1201D00681B
:1007C000400206D52068800336D568680028E2D04C
:1007D00032E06868B0F5803F10D0B0F5A02F2068F7
:1007E00010D020F480302060206820F48020206029
:1007F0006868A0B1FFF746FE06460CE0206840F4AA
:100800008030F4E740F480202060F7E7FFF73AFEFD
:10081000801B642873D820688003F7D50CE0FFF7AD
:1008200031FE064605E000BFFFF72CFE801B642862
:10083000F0D820688003F7D42878DFF8608280073A
:100840004FF000093ED5DBF80010584611F00C0FB0
:1008500009D00068C0F3810002280BD18D48001F29
:100860000068400206D42068800715D5E868012892
:1008700009D111E0E868B8B10120C8F80000FFF71D
:1008800001FE064605E002E1FFF7FCFD801B0228A1
:10089000C0D820688007F7D52068296920F0F800C3
:1008A00040EAC10020600DE0C8F80090FFF7EAFDC3
:1008B000064604E0FFF7E6FD801B02281FD82068EB
:1008C0008007F7D42878000722D5724E74486969EA
:1008D0006C3671B101210160FFF7D4FD074604E0D9
:1008E000FFF7D0FDC01B022809D830688007F7D574
:1008F0000EE0C0F80090FFF7C5FD074605E083E075
:10090000FFF7C0FDC01B02287ED830688007F7D4EF
:100910002878400768D5DFF87CA100270AF1380A5B
:10092000DAF80000C0000BD4DAF8001041F0805172
:10093000CAF80010DAF80000012700F0805000909B
:10094000584E3068C00510D4306840F48070306074
:10095000FFF798FD009005E0FFF794FD0099401A1D
:10096000022851D83068C005F6D54A4EA8686836C6
:1009700001280FD00528306810D020F00100306029
:10098000306820F004003060A868B8B1FFF77AFD45
:1009900000900FE0306840F00100F4E740F0040000
:1009A0003060F7E7FFF76EFD0099411A41F2883099
:1009B000814264D830688007F4D50EE0FFF762FD0D
:1009C000009007E0FFF75EFD0099411A41F2883080
:1009D000814254D830688007F4D42FB1DAF800107F
:1009E00021F08051CAF80010A869C0B3DBF80010EC
:1009F000C1F3810102294AD00228484607D0C8F82D
:100A00006000FFF73FFD00E039E005463AE0474669
:100A1000C8F86000FFF736FD064604E0FFF732FD38
:100A2000801B02282BD820688001F7D4D5E9070164
:100A30000843A96A1C4A490802EB01416A6A41EA73
:100A40008211084395F82C1040EA01611148001FFB
:100A5000016001203866FFF715FD054605E014E04A
:100A6000FFF710FD401B022809D820688001F7D548
:100A70000BE000BFFFF706FD401B022802D9032050
:100A8000BDE8F88F20688001F4D40020F8E7012049
:100A9000F6E70000083802400038024000004742F4
:100AA000800E4742007000400000FFFF10B5401E5E
:100AB000B0F1807F01D3012010BD4FF0E0246061D0
:100AC0000F21601700F0FAF90020A06107202061D3
:100AD000002010BD7047000070B502680446106821
:100AE000D168536910F00F0F51D003F0010501F4E4
:100AF000907635435DD0C20705D0CA0503D5E26BB9
:100B000042F00102E263420705D5DA0703D0E26B47
:100B100042F00202E263820705D5DA0703D0E26BF6
:100B200042F00402E263020705D5DA0703D0E26B64
:100B300042F00802E263E26B002A34D0800604D55A
:100B4000880602D5204600F04FFA20684069E16B24
:100B5000C0F3801001F008010143204624D000F0CA
:100B600035FA2068416949061AD5416921F04001EA
:100B70004161606BA0B11B490165606BFFF797FB9A
:100B8000002810D0606B016DBDE8704008478306F7
:100B90000FD58B060DD52046BDE8704000F024BA75
:100BA0002046FFF797FF70BDFFF794FF0020E0633A
:100BB00070BD030606D50B0604D52046BDE870407F
:100BC00000F0AEBB4006F3D54806F1D5D16820460B
:100BD00021F04001D160202184F8391000F00DF996
:100BE00070BD0000BD0F000870B5040004D094F87B
:100BF0003900002510B106E0012070BD84F838509E
:100C0000204600F023F8242084F839002068C168C9
:100C100021F40051C160204600F02CFA20680169DF
:100C200021F4904101612068416921F02A0141616C
:100C30002068C16841F40051C160E563202084F858
:100C4000390084F83A00002070BD000010B586B06D
:100C5000044614216846FFF7EBFA174920688842DA
:100C600028D11648016841F400310160006800F4A1
:100C70000030059011481038016841F00101016011
:100C80000068694600F0010005900C2000900220E9
:100C9000019001200290032003900720049008484F
:100CA000FFF718FB002211462620FFF757FC2620ED
:100CB000FFF748FC06B010BD004400404038024039
:100CC0000000024090F83A30202B1DD1D1B1CAB1BA
:100CD00090F83830012B17D081628285C2850021BF
:100CE000C163222280F83A2080F8381001684A69EE
:100CF00042F001024A610068C16841F49071C1602C
:100D000000207047012070470220704710B50A4C40
:100D1000A0420FD100F07EFB302208492046FFF7A9
:100D2000D1FF2068C16841F02001C160BDE81040DA
:100D300000F074B810BD0000D4000020A400002012
:100D40002DE9F843044690F839001F4616460D4633
:100D5000202850D1A5B19EB194F8380001284AD07E
:100D6000012084F838004FF00008C4F83C802120AE
:100D700084F83900FFF786FBA6848146E68426E0E6
:100D80000120BDE8F883E08C401EE084A0684B465B
:100D9000B0F5805F4FF000024FF0800120460097D1
:100DA00003D000F0EEFAE8B90DE000F0EAFAC8B9B5
:100DB00028882168C0F308004860206908B16D1CCC
:100DC00005E0AD1C03E0216815F8010B4860E08CDC
:100DD0000028D8D14B46002240212046009700F041
:100DE000D0FA08B10320CCE7202084F8390084F839
:100DF00038800020C5E70220C3E77047FEE7000007
:100E000010B5302203490448FFF75CFFBDE81040ED
:100E100000F004B8A4000020D40000201CB506A1F6
:100E20004FF47A73D1E90001CDE90001052269464A
:100E30000348FFF785FF1CBD770400595D000000E3
:100E4000D40000200D4808B5016841F08001016020
:100E5000016801F080010091016841F00101016029
:100E6000016801F001010091016841F00201016097
:100E7000006800F00200009008BD00003038024019
:100E80000C4810B50A4901604FF4E131416000217E
:100E900081600C22C160C0E904128161C161FFF769
:100EA000A3FE002803D0BDE81040FFF7FFB910BD36
:100EB00000440040D4000020FEE770470907090EF7
:100EC000002806DA00F00F0000F1E02080F8141D81
:100ED000704700F1E02080F80014704770477047B9
:100EE000FFF7D6BA30B593B030216846FFF7A0F9C6
:100EF00014210CA8FFF79CF919480025016841F05E
:100F000080510160006800F0805011901548016820
:100F100041F4804101600068022400F48040119097
:100F200001200090000401908001CDE9064008AA4C
:100F30000420A82182E813000B906846FFF728FCE4
:100F40000CA90F2081E831004FF4A0500F90E0026F
:100F5000109005210CA8FFF733FB13B030BD000043
:100F600040380240007000401048016841F47001B0
:100F700001600F48016841F0010101600C4A002145
:100F80000832116002680B4B1A400260031D0A4AC6
:100F90001A60026822F48022026005480C30016069
:100FA00002495806803908607047000088ED00E06B
:100FB00000380240FFFFF6FE1030002410B5806BB1
:100FC0000021C185C184FFF785FD10BD0168CA6895
:100FD00022F49072CA6001684A6922F001024A61F3
:100FE000202180F83A10704710B590F83A10222965
:100FF00001D0022010BD8168B1F5805F11D0016978
:10100000002901681FD0496801F07F03816A4A1CEA
:1010100082620B70C18D491E0904090CC18518D06C
:1010200026E00269816A002A0268526805D0D2B2BD
:101030000A80816A491C8162ECE7C2F308020A80D7
:10104000816A891CF7E74A68816A4B1C83620A70CF
:10105000E0E70168CA6822F49072CA6001684A69D0
:1010600022F001024A61202180F83A10FFF74EFE7B
:10107000002010BD2DE9F04104460068016921F40B
:101080004052E168114301612168C86849F20C626D
:1010900090432369A268E5691A4363692B431A43A5
:1010A0000243CA602168486920F44072A069104375
:1010B0004861E1696425B1F5004F9748974A216876
:1010C0004FF032083FD0914201D081427CD1FFF7EE
:1010D0001FFB00EBC00101EB001061688900B0FB51
:1010E000F1F6FFF715FB00EBC00101EB00106168A2
:1010F0008900B0FBF1F0B0FBF5F06FF01801484348
:1011000006EB800108EB0110B0FBF5F000F0F006F3
:10111000FFF7FEFA00EBC00101EB001061688900E7
:10112000B0FBF1F0B0FBF5F006EB0016FFF7F0FABC
:1011300000EBC00101EB001061688900B0FBF1F722
:10114000FFF7E6FAD2E0914201D081423DD1FFF7AC
:10115000DFFA00EBC00101EB001061684900B0FB51
:10116000F1F0B0FBF5F00601FFF7D2FA00EBC00199
:1011700001EB001061684900B0FBF1F7FFF7C8FA16
:1011800000EBC00101EB001061684900B0FBF1F019
:10119000B0FBF5F06FF01801484307EB800108EB56
:1011A000C100B0FBF5F000F0F80006EB4006FFF7D9
:1011B000AFFA00EBC00101EB001061684900B0FB21
:1011C000F1F7FFF7A5FA3CE055E0FFF791FA00EBE5
:1011D000C00101EB001061684900B0FBF1F0B0FB09
:1011E000F5F00601FFF784FA00EBC00101EB0010F7
:1011F00061684900B0FBF1F7FFF77AFA00EBC00134
:1012000001EB001061684900B0FBF1F0B0FBF5F0B4
:101210006FF01801484307EB800108EBC100B0FBF9
:10122000F5F000F0F80006EB4006FFF761FA00EB7E
:10123000C00101EB001061684900B0FBF1F7FFF756
:1012400057FA00EBC00101EB001061684900B0FBE8
:10125000F1F0B0FBF5F06FF01801484307EB8001A7
:1012600008EBC100B0FBF5F000F007002168304446
:101270008860BDE8F081FFF73BFA00EBC00101EBAD
:10128000001061688900B0FBF1F6FFF731FA00EB5E
:10129000C00101EB001061688900B0FBF1F0B0FB08
:1012A000F5F06FF01801484306EB800108EB0110E0
:1012B000B0FBF5F000F0F006FFF71AFA00EBC00102
:1012C00001EB001061688900B0FBF1F0B0FBF5F0B4
:1012D00006EB0016FFF70CFA00EBC00101EB001063
:1012E00061688900B0FBF1F7FFF702FA00EBC0017B
:1012F00001EB001061688900B0FBF1F0B0FBF5F084
:101300006FF01801484307EB800108EB0110B0FBB8
:10131000F5F000F00F00A9E70014014000100140B3
:1013200090F83910212901D0022070478168B1F569
:10133000805F016A0BD04A1C026202680978516022
:10134000C18C491E0904090CC1840ED017E009881C
:101350000268C1F30801516001690029016A02D0E5
:10136000491C0162ECE7891CFBE70168CA6822F0AE
:101370008002CA600068C16841F04001C16000207D
:1013800070472DE9F041984617460E460446069DE3
:101390001DE0681C1BD02DB1FFF774F8A0EB08000E
:1013A000A84214D92068C16821F4D071C1602068B6
:1013B000416921F001014161202084F8390084F85D
:1013C0003A00002084F838000320BDE8F08120684E
:1013D000006836EA000004D00020B842D9D00020CE
:1013E000F3E70120F9E700000148FFF775BB0000B3
:1013F000D4000020FEE702E008C8121F08C1002A3E
:10140000FAD170477047002001E001C1121F002A85
:10141000FBD17047944A00B5107877287DD0002022
:1014200053782F2B7AD0002318409378002B76D056
:1014300000231840D378592B72D00023184201D1D1
:1014400001296ED1507900F019F9117901F00F01DD
:10145000084400EE100A9079F8EE400A00F00EF908
:1014600000EE100AB8EE401A9FED800A804BC1EEE4
:10147000001A70EEA10AC3ED010A1079C00603D567
:10148000F1EE600AC3ED010A107A00F0F7F8D179A5
:1014900001F00F01084400EE900A507AB8EE601A8D
:1014A00000F0ECF800EE900AF8EE600AC0EE801A48
:1014B00031EE210A83ED020AD079C00603D5B1EEE0
:1014C000400A83ED020A907B00F0D8F800EE100A83
:1014D000507BB8EE401A00F00F0000EE100AB8EE94
:1014E000400ADFED640AD07B01EE200A00F0C6F866
:1014F00001EE100AF8EE411A9FED5F1A01EE810A23
:1015000083ED180A507BC00603D5B1EE400A83ED87
:10151000180A507C00F0B2F804E09CE09DE09EE0E8
:101520009FE097E000EE100A107CF8EE401A00F001
:101530000F0000EE100A907CB8EE400A01EEA00AFF
:1015400000F09CF801EE900AF8EE611A01EE810AB3
:1015500083ED190A107CC00603D5B1EE400A83ED75
:10156000190A107D00F08AF800EE100AD07CF8EE1F
:10157000401A00F00F0000EE100A507DB8EE400A4D
:1015800001EEA00A00F07AF801EE900AF8EE611A76
:1015900001EE810A83ED1A0AD07CC00603D5B1EEB4
:1015A000400A83ED1A0AD07D00F068F8917D01F0C1
:1015B0000F01084400EE100A107EB8EE400A00F059
:1015C0005DF801EE100AB8EE411A01EE200A83ED33
:1015D0000C0A907DC00603D5B1EE400A83ED0C0ADB
:1015E000907E00F04BF8517E01F00F01084400EEB0
:1015F000100AD07EB8EE400A00F040F801EE100A62
:10160000B8EE411A01EE200A83ED0D0A507EC006A5
:1016100003D5B1EE400A83ED0D0A507F00F02EF89D
:10162000117F01F00F01084400EE100A907FB8EE20
:10163000400A00F023F801EE100AB8EE411A01EE5C
:10164000200A83ED0E0A107FC00603D5B1EE400AD2
:1016500083ED0E0A00BD0120E2E60123E4E601234A
:10166000E7E60123EAE60000A40000200000C842EB
:10167000100000200AD7233C17B7D13800F00F0123
:10168000000900EB800001EB4000C0B27047FEF79C
:1016900007FFFFF727FCFFF7D5FBFFF7F1FBFFF78D
:1016A000AFFBFEE7000000000000000001020304A1
:1016B000060708090000000001020304DC16000808
:1016C0000000002010000000F6130008EC160008CF
:1016D00010000020080500000614000801000000AA
:0C16E00010000000000000000024F400D6
:040000050800018965
:00000001FF
